:020000040800F2
:1000000000C0002055350008090A00080D0A000844
:10001000110A0008150A0008190A0008000000006B
:100020000000000000000000000000001D0A0008A1
:10003000210A000800000000250A0008290A00081B
:10004000A5350008A5350008A5350008A535000828
:10005000A5350008A5350008A5350008A535000818
:10006000A5350008A5350008A5350008A535000808
:10007000A5350008A5350008A5350008A5350008F8
:10008000A5350008A5350008A53500082D0A00088B
:100090003D0A00084D0A0008A5350008A5350008EE
:1000A000A53500085D0A0008A5350008A53500083B
:1000B000A53500080000000000000000A53500087C
:1000C000A5350008A5350008A5350008A5350008A8
:1000D000A53500086D0A0008A5350008A5350008FB
:1000E000A5350008A535000800000000000000004C
:1000F0000000000000000000000000000000000000
:1001000000000000A535000800000000A53500082B
:100110000000000000000000A5350008A53500081B
:10012000A5350008A5350008A5350008A535000847
:10013000A5350008000000000000000000000000DD
:10014000A5350008A5350008A53500080000000009
:10015000A5350008A5350008A5350008A535000817
:10016000A5350008A5350008A535000800000000E9
:10017000A5350008A53500080000000000000000BB
:10018000A5350008A5350008A535000800000000C9
:1001900010B5054C237833B9044B13B10448AFF3C1
:1001A00000800123237010BD7800002000000000B3
:1001B00080440008084B10B51BB108490848AFF34C
:1001C00000800848036803B910BD074B002BFBD023
:1001D000BDE81040184700BF000000007C00002070
:1001E00080440008780000200000000000000000AB
:1001F00001F0FF01102A2BDB10F0070F08D010F8D8
:10020000013B013A8B422DD010F0070F42B3F6D1DB
:10021000F0B441EA012141EA014122F007047FF0F4
:1002200000070023F0E80256083C85EA010586EA4B
:10023000010685FA47F5A3FA87F586FA47F6A5FA87
:1002400087F68EB9EED1F0BC01F0FF0102F0070293
:1002500032B110F8013B013A83EA010313B1F8D13E
:100260000020704701387047002D06BF354603381F
:10027000073815F0010F07D1013015F4807F02BF58
:10028000013015F4C03F0130F0BC0138704700BFA9
:1002900053B94AB9002908BF00281CBF4FF0FF31ED
:1002A0004FF0FF3000F07EB9ADF1080C6DE904CEDF
:1002B00000F006F8DDF804E0DDE9022304B0704741
:1002C0002DE9F0478C460E460446089D002B50D180
:1002D0008A4217466CD9B2FA82FEBEF1000F0BD0EB
:1002E000CEF1200420FA04F401FA0EF644EA060CDA
:1002F00002FA0EF700FA0EF44FEA1749220CBCFB83
:10030000F9F01FFA87F809FB10C642EA064600FB1F
:1003100008F3B34209D9F61900F1FF3280F02281C7
:10032000B34240F21F8102383E44F61AA2B2B6FB35
:10033000F9F309FB136642EA064403FB08F8A045FB
:1003400009D9E41903F1FF3280F00A81A04540F297
:100350000781023B3C44C8EB040443EA004000210F
:10036000002D62D024FA0EF400232C606B60BDE8EF
:10037000F0878B4207D9002D55D0002185E8410038
:100380000846BDE8F087B3FA83F1002940F0908079
:10039000B34202D3824200F2F880841A66EB03066D
:1003A0000120B446002D40D085E81010BDE8F0874C
:1003B00012B90127B7FBF2F7B7FA87FEBEF1000FBB
:1003C00035D1F31B4FEA17481FFA87FC0121B3FB15
:1003D000F8F0220C08FB103642EA06460CFB00F34C
:1003E000B34207D9F61900F1FF3202D2B34200F24C
:1003F000CE801046F61AA2B2B6FBF8F308FB1366DD
:1004000042EA06440CFB03FCA44507D9E41903F1B6
:10041000FF3202D2A44500F2B5801346CCEB0404AF
:1004200043EA00409CE729462846BDE8F087CEF124
:10043000200106FA0EF307FA0EF720FA01F94FEA47
:100440001748CE4049EA0309B6FBF8FA4FEA1944C7
:1004500008FB1A661FFA87FC44EA06430AFB0CF203
:100460009A4200FA0EF40AD9DB190AF1FF3180F042
:1004700087809A4240F28480AAF1020A3B449B1A88
:100480001FFA89F9B3FBF8F108FB113349EA03437A
:1004900001FB0CF69E4207D9DB1901F1FF326BD24A
:1004A0009E4269D902393B449B1B41EA0A418EE7CF
:1004B000C1F1200E22FA0EF48B40234320FA0EF7EE
:1004C00006FA01F44FEA134C26FA0EF63C43B6FB4B
:1004D000FCF9270C0CFB19661FFA83F847EA06465D
:1004E00009FB08F7B74202FA01F200FA01FA08D94B
:1004F000F61809F1FF3041D2B7423FD9A9F10209FC
:100500001E44F61BA0B2B6FBFCF40CFB146640EADA
:10051000064704FB08F8B84507D9FF1804F1FF3077
:1005200028D2B84526D9023C1F4444EA0940C8EB0A
:100530000707A0FB02894F4544464E4614D329D0F5
:1005400065B3BAEB040367EB060707FA0EFECB4070
:10055000CF404EEA030385E888000021BDE8F0871C
:100560001346F8E61046E0E6B8EB020469EB030632
:100570000138E5E70446D8E7114695E78146C0E72C
:100580008A467CE7023B3C4448E708460AE70238D3
:100590003E442FE7C245E7D33E46D1E72946BDE8B2
:1005A000F08700BF704700BF30B589B000240394C6
:1005B0000494059406940794164BDA6C42F080027A
:1005C000DA64DA6C02F080020092009ADA6C42F08F
:1005D0000202DA64DA6C02F002020192019ADA6C29
:1005E00042F00102DA64DB6C03F001030293029B28
:1005F000094D01220321284601F07AFB03230393CE
:10060000012304930594069403A9284601F09CFA5B
:1006100009B030BD001002400004004808B502686F
:10062000024B9A4201D100F037FB08BD0044014063
:1006300072B6FEE708B50D480D4B03600423436016
:1006400000238360C3604FF4802202614FF4801264
:1006500042610376437683760122C276037743773D
:1006600001F03CFC08B1FFF7E3FF08BDC009002022
:100670000064004008B50B480B4B03604FF4E133B6
:10068000436000238360C36003610C224261836185
:10069000C3610362436202F077FE08B1FFF7C8FF4F
:1006A00008BD00BF380900200038014010B59AB0DD
:1006B0000024169417941894199413941494159470
:1006C0000C940D940E940F941094119412942C2267
:1006D000214601A802F094FF2648274B036010230F
:1006E000436084604FF6FF73C360046144618461BA
:1006F00002F050F808B1FFF79BFF1AA94FF480539E
:1007000041F8103D1B4802F027F908B1FFF790FFB0
:10071000184802F071F808B1FFF78AFF002313931D
:10072000159313A9134802F089F908B1FFF780FF68
:1007300000220C920D920E920F9210921192129230
:100740000CA90C4802F0C4F808B1FFF771FF0023B0
:10075000019302930393049305934FF4005206927E
:100760000B9301A9034802F0A1F908B1FFF760FF5C
:100770001AB010BDE80800200040014000B597B055
:100780004422002105A802F03BFF002300930193BF
:100790000293039304934FF4007001F005FB08B13A
:1007A000FFF746FF022305934FF480720892102250
:1007B00009920F931093119312920722139214939C
:1007C0000823159305A800F01DFB08B1FFF730FFC3
:1007D0000F230093032301930021029103910491BD
:1007E000684600F06BFE08B1FFF722FF17B05DF816
:1007F00004FB00BF2DE9F0416B4BD3F89410D3F804
:10080000942042F40002C3F8942011F0005F08D055
:100810004FF40042654B1A60BFF34F8F644B1B6867
:10082000984700F02BFAFFF7A9FFFFF7BDFEFFF78F
:1008300001FFFFF71FFFFFF739FF02F0F9FD5D48E9
:1008400002F0E6FE5C4F3E683D68574CD4F89410C9
:100850005A4802F0DDFED4F8943043F08073C4F8B7
:100860009430D4F89410564802F0D2FED4F8943064
:1008700043F06043C4F89430D4F89410514802F027
:10088000C7FE4FF40062504B1A60504B1968504835
:10089000016001331A68426001331B6883604D4870
:1008A00000884D4C20804D4802F0B2FE21884C4813
:1008B00002F0AEFE4B4802F003FE3B684A4F1F4475
:1008C0003B4C22682146494802F0A2FE00213A4BE7
:1008D0001B685B1B002B09DD05F5740505F510553C
:1008E00001F10108424802F093FE4146324B1B6879
:1008F0009B1B002B10DD06F5741606F510663D4BAC
:100900005B6913F0020F03D102223A4B9A6103E0B4
:100910004FF40032374B9A61374B1B78002BD6D1FE
:10092000254B1B68FB1A002BD1DA214B1A68944225
:1009300002D8324B9A4210D92146314802F068FE63
:100940001D4B1B6803F5F40303F590531A4A126814
:100950009A1A002AFADC02F095FD174B1B6803F582
:10096000F40303F59053144A12689A1A002AFADC29
:100970000D4AD2F8943043F00103C2F894300A4B88
:10098000D3F8943013F0020FF9D01E4B45F25552B4
:100990001A6000225A6002229A604AF6AA221A605D
:1009A0004CF6CC421A60FEE70010024008ED00E071
:1009B0000480000898440008041000E0BC440008CB
:1009C000EC4400082C450008BC0900209075FF1F6E
:1009D000E8090020E075FF1F340900206C4500087D
:1009E000884500080000A0B000B4C404A045000879
:1009F000D445000800040048D8080020FFFF030881
:100A0000F045000800300040FEE700BFFEE700BFF1
:100A1000FEE700BFFEE700BFFEE700BF704700BF74
:100A2000704700BF704700BF704700BF08B502485D
:100A300001F018FB08BD00BFC009002008B502483E
:100A400001F010FB08BD00BFC009002008B5024836
:100A500001F008FB08BD00BFC009002008B502482E
:100A600001F098FD08BD00BFF409002008B5024858
:100A700002F09CF808BD00BF3809002082B00A4B84
:100A80001A6E42F001021A661A6E02F0010200921A
:100A9000009A9A6D42F080529A659B6D03F08053E4
:100AA0000193019B02B070470010024000B589B06D
:100AB00000230393049305930693079302681F4B47
:100AC0009A4238D103F5D6339A6D42F000729A6596
:100AD0009A6D02F000720192019ADA6C42F0020201
:100AE000DA64DB6C03F002030293029B4FF4407361
:100AF000039302230493032306930923079303A973
:100B00000F4801F021F800220521132001F0A6F979
:100B1000132001F0D5F900220521142001F09EF9DF
:100B2000142001F0CDF900220521152001F096F9DD
:100B3000152001F0C5F909B05DF804FB0064004020
:100B4000000400480268084B9A420CD182B003F5B9
:100B500050431A6E42F480321A661B6E03F48033DF
:100B60000193019B02B070470040014010B59EB058
:100B70000446002119911A911B911C911D915C2230
:100B800002A802F03DFD22681C4B9A4234D1012399
:100B9000029302230A9302A800F048FE08B1FFF76F
:100BA00047FD174B1A6E42F480421A661A6E02F421
:100BB00080420092009ADA6C42F00102DA64DB6C47
:100BC00003F001030193019B4FF4C06319930223C7
:100BD0001A9300241B9403231C9307231D9319A924
:100BE0004FF0904000F0B0FF22462146252001F052
:100BF00035F9252001F064F91EB010BD0038014020
:100C00000010024000B589B000220146192001F011
:100C100025F9192001F054F9144B1A6E42F40032F0
:100C20001A661B6E03F400330193019B02A903A80B
:100C300000F020FD00F00CFD0D4BA3FB00239B0CEE
:100C4000013B0C480C4A026040F2E732C26043604C
:100C500000230361836001F09DFD18B9054801F090
:100C600059FC00E0012009B05DF804FB00100240CF
:100C700083DE1B43F40900200044014008B5032033
:100C800001F0DAF80020FFF7BDFF18B9FFF7F6FE14
:100C9000002008BD012008BD034B1978034A1368E2
:100CA0000B441360704700BF04000020400A00207E
:100CB000014B1868704700BF400A002030B583B070
:100CC0000546204B9B6D13F0805F02D001F064F865
:100CD0000FE01C4CA36D43F08053A365A36D03F09C
:100CE00080530193019B01F057F8A36D23F08053CB
:100CF000A365B0F5007F05D1802D0AD9A02D0AD9B2
:100D000002210FE0802D08D809D0702D09D00021D4
:100D100008E0002106E0012104E0032102E00221B5
:100D200000E00121084A136823F007030B43136016
:100D3000136803F00703994201D0012000E000206E
:100D400003B030BD0010024000200240294A9368E1
:100D5000D26813F00C0305D002F003020C2B16D15D
:100D6000012A14D1234A126812F0080F05D1214A32
:100D7000D2F89420C2F3032203E01E4A1268C2F3A1
:100D800003121D4951F8221043B100200DE0042B3D
:100D900006D0082B07D00020014606E0084604E0F4
:100DA0001648002101E0164800210C2B21D110B477
:100DB000104BDB6803F00303022B02D0032B02D09D
:100DC00002E00E4900E00E490A4CE068C0F3021050
:100DD0000130E268C2F3062202FB01F3B3FBF0F339
:100DE000E068C0F3416001304000B3FBF0F05DF813
:100DF000044B704700100240604600080024F400D5
:100E000000127A00002800F01C83F0B583B004467D
:100E1000A44B9D6805F00C05DE6806F00306036828
:100E200013F0100F00F0A3801DB10C2D62D1012E24
:100E300060D19C4B1B6813F0020F03D0A369002BF9
:100E400000F00183206A974B1B6813F0080F04D051
:100E5000944B1B6803F0F00305E0924BD3F89430F9
:100E60001B0903F0F003834217D2FFF727FF002886
:100E700040F0EB828B4B1A6842F008021A601A6845
:100E800022F0F001226A0A431A605A6822F47F4273
:100E9000E16942EA01225A6018E0824B1A6842F086
:100EA00008021A601A6822F0F001226A0A431A60E6
:100EB0005A6822F47F42E16942EA01225A602DB960
:100EC000206AFFF7FBFE002840F0C182FFF73EFFDB
:100ED000744B9B68C3F30313734AD35C03F01F0383
:100EE000D840724B1860724B1868FFF78BFE0028D1
:100EF0003DD0AEE2A36933B36A4A136843F00103FD
:100F00001360FFF7D5FE074605E0FFF7D1FEC01BD3
:100F1000022800F29F82634B1B6813F0020FF4D08B
:100F2000604B1A6842F008021A601A6822F0F00159
:100F3000226A0A431A605A6822F47F42E16942EA4F
:100F400001225A6013E0574A136823F0010313602B
:100F5000FFF7AEFE074605E0FFF7AAFEC01B02281A
:100F600000F27A824F4B1B6813F0020FF4D1236812
:100F700013F0010F52D0082D03D00C2D0AD1032EEF
:100F800008D1484B1B6813F4003F47D06368002B1F
:100F900044D163E26368B3F5803F05D1414A1368E9
:100FA00043F48033136018E0B3F5A02F0CD103F1A4
:100FB0008043A3F53C331A6842F480221A601A6811
:100FC00042F480321A6008E0364B1A6822F480320C
:100FD0001A601A6822F480221A6063687BB1FFF7F6
:100FE00067FE074605E0FFF763FEC01B642800F2BA
:100FF00037822C4B1B6813F4003FF4D00EE0FFF750
:1010000057FE074605E0FFF753FEC01B642800F2B9
:101010002982244B1B6813F4003FF4D1236813F09A
:10102000020F52D0042D03D00C2D13D1022E11D15A
:101030001C4B1B6813F4806F03D0E368002B00F097
:101040001382184A536823F0F853216943EA016375
:1010500053603AE0E368E3B1124A136843F48073E3
:101060001360FFF725FE064605E0FFF721FE801B13
:10107000022800F2FB810B4B1B6813F4806FF4D045
:10108000084A536823F0F853216943EA0163536027
:101090001BE0044A136823F480731360FFF708FE13
:1010A00006460DE0001002404846000808000020F7
:1010B00000000020FFF7FCFD801B022800F2D88111
:1010C000BA4B1B6813F4806FF4D1236813F0080F38
:1010D00030D06369BBB1B54AD2F8943043F0010314
:1010E000C2F89430FFF7E4FD064605E0FFF7E0FDA7
:1010F000801B022800F2BE81AC4BD3F8943013F071
:10110000020FF3D016E0A94AD2F8943023F001037D
:10111000C2F89430FFF7CCFD064605E0FFF7C8FDA6
:10112000801B022800F2A881A04BD3F8943013F062
:10113000020FF3D1236813F0040F7FD09B4B9B6DFC
:1011400013F0805F0BD1994B9A6D42F080529A65F3
:101150009B6D03F080530193019B012600E0002664
:10116000934B1B6813F4807F13D1914A136843F4A7
:1011700080731360FFF79CFD074605E0FFF798FDBD
:10118000C01B022800F27A81894B1B6813F4807F10
:10119000F4D0A368012B07D1844AD2F8903043F0F1
:1011A0000103C2F890301CE0052B0DD17F4BD3F822
:1011B000902042F00402C3F89020D3F8902042F02F
:1011C0000102C3F890200CE0784BD3F8902022F075
:1011D0000102C3F89020D3F8902022F00402C3F853
:1011E0009020A36893B1FFF763FD074607E0FFF780
:1011F0005FFDC01B41F28833984200F241816B4B86
:10120000D3F8903013F0020FF1D011E0FFF750FD4A
:10121000074607E0FFF74CFDC01B41F288339842B8
:1012200000F23081614BD3F8903013F0020FF1D10E
:1012300026B15E4A936D23F080539365236813F0C3
:10124000200F30D0636ABBB1584AD2F8983043F0CF
:101250000103C2F89830FFF72BFD064605E0FFF7C3
:1012600027FD801B022800F20F81504BD3F89830E5
:1012700013F0020FF3D016E04C4AD2F8983023F066
:101280000103C2F89830FFF713FD064605E0FFF7AB
:101290000FFD801B022800F2F980444BD3F89830F0
:1012A00013F0020FF3D1A36A002B00F0F180022BA0
:1012B00040F0A0803D4BDB6803F00301E26A9142FD
:1012C00022D103F07002216B0139B2EB011F1BD157
:1012D00003F4FE42616BB2EB012F15D103F07842AB
:1012E000A16BB2EBC16F0FD103F4C001E26B5208E6
:1012F000013AB1EB425F07D103F0C063226C5208A0
:10130000013AB3EB426F57D00C2D00F0C380274B4E
:101310001B6813F0806F40F0BF80244A136823F0ED
:1013200080731360FFF7C4FC054605E0FFF7C0FCBF
:10133000401B022800F2B2801C4B1B6813F0007F98
:10134000F4D11A49CB681B4D1D40E36A226B013A68
:1013500043EA0213626B43EA0222E06B4008013861
:1013600042EA4052206C4008431E42EA4362A36BAB
:1013700042EAC3632B43CB600B6843F080730B607E
:10138000CB6843F08073CB60FFF792FC044605E026
:10139000FFF78EFC001B022800F28280034B1B68C3
:1013A00013F0007FF4D0002083E000BF0010024063
:1013B000007000408C809D013F4B1B6813F0007F44
:1013C00070D13D4B1A6842F080721A60DA6842F0C0
:1013D0008072DA60FFF76CFC044604E0FFF768FCFB
:1013E000001B022860D8344B1B6813F0007FF5D037
:1013F00000205EE00C2D59D02F4B1A6822F080722D
:101400001A601B6813F0006F04D12B4AD36823F0D5
:101410000303D360284AD36823F0887323F480330E
:10142000D360FFF745FC044604E0FFF741FC001BD6
:1014300002283DD8204B1B6813F0007FF5D1002017
:1014400037E001207047012033E0012031E0012026
:101450002FE02EE003202CE003202AE0012028E0EA
:10146000032026E0032024E0012022E0032020E0E6
:1014700003201EE003201CE003201AE0032018E0F4
:10148000032016E0032014E0032012E0032010E004
:1014900000200EE001200CE001200AE0032008E01B
:1014A000032006E0002004E0032002E0012000E029
:1014B000032003B0F0BD00BF00100240002800F080
:1014C000948070B50446514B1B6803F007038B42B0
:1014D0000BD24E4A136823F007030B4313601368C3
:1014E00003F00703994240F082800D46236813F011
:1014F000010F35D06368032B05D1454A126812F0FD
:10150000007F14D175E0022B05D1414A126812F414
:10151000003F0CD16FE02BB93D4A126812F0020F68
:1015200005D16AE03A4A126812F4806F67D03849F0
:101530008A6822F0030213438B60FFF7B9FB06466B
:1015400006E0FFF7B5FB801B41F28833984258D87C
:101550002F4B9B6803F00C036268B3EB820FF0D152
:10156000236813F0020F06D029498B6823F0F0029C
:10157000A36813438B60254B1B6803F007039D4250
:101580000AD2224A136823F007032B43136013681F
:1015900003F007039D4236D1236813F0040F06D0F1
:1015A0001B498B6823F4E062E36813438B60236874
:1015B00013F0080F07D0164A936823F4605321698B
:1015C00043EAC1039360FFF7C1FB114B9B68C3F370
:1015D0000313104AD35C03F01F03D8400E4B18606E
:1015E0000E4B1868FFF70EFB70BD012070470120FD
:1015F00070BD012070BD012070BD012070BD0120B3
:1016000070BD032070BD012070BD00BF00200240EE
:10161000001002404846000808000020000000209A
:10162000014B1868704700BF0800002008B5FFF79D
:10163000F7FF054B9B68C3F30223044AD35C03F016
:101640001F03D84008BD00BF0010024058460008E4
:1016500008B5FFF7E5FF054B9B68C3F3C223044AB7
:10166000D35C03F01F03D84008BD00BF0010024048
:10167000584600080F2303600B4B9A6802F00302E0
:1016800042609A6802F0F00282609A6802F4E062B6
:10169000C2609B68DB0803F4E0630361034B1B68D3
:1016A00003F007030B607047001002400020024067
:1016B000F8B55D4BDB6813F0030F12D05A4BDB68B3
:1016C00003F003030268934241D1002A41D0564BF4
:1016D000DB68C3F302130133426893423BD1002419
:1016E0003AE00368022B0AD0032B0FD0012B19D14B
:1016F0004D4A126812F0020F16D000241BE04A4A2D
:10170000126812F4806F11D0002414E0464A126867
:1017100012F4003F0CD1444A126812F4802F09D011
:10172000002408E0012406E0012404E0012402E092
:10173000002400E001247CB93B4EF26822F07302E1
:101740004568013D43EA05131343F36004E00124B7
:1017500002E0012400E00124002C63D10F4605467D
:10176000314A136823F080631360FFF7A1FA06463D
:1017700004E0FFF79DFA801B022805D82A4B1B685E
:1017800013F0006FF5D100E00324002C4AD16FB9AB
:1017900025490B6923F0784222F4FE42A868EB68E1
:1017A000DB0643EA002313430B6120E0012F0FD136
:1017B0001D4E336923F4C00121F4FE41A8682B6952
:1017C0005A08013A520542EA00230B4333610EE006
:1017D000154E336923F0C06121F4FE41A8686B699E
:1017E0005A08013A520642EA00230B4333610E4A7B
:1017F000136843F080631360FFF75AFA064604E06B
:10180000FFF756FA801B022805D8074B1B6813F018
:10181000006FF5D000E0032424B9034A1169AB69D5
:101820000B4313612046F8BD001002402DE9F04142
:1018300082B00446036813F4006F24D0436CB3F500
:10184000000F06D0B3F5400F01D07BB908E00026A9
:101850000DE0A14AD36843F48033D360002606E04C
:1018600000210430FFF724FF064600E001266EB990
:101870009949D1F8883023F44002636C1343C1F8CE
:101880008830374603E000273E4600E037462368AD
:1018900013F4003F76D0904B9B6D13F0805F01D125
:1018A000012300E0002363B18B4B9A6D42F080521C
:1018B0009A659B6D03F080530193019B4FF00108E3
:1018C00001E04FF00008854A136843F48073136009
:1018D000FFF7EEF9054604E0FFF7EAF9401B02289E
:1018E00005D87E4B1B6813F4807FF5D000E00326FB
:1018F000002E3CD1784BD3F8903013F4407315D0C0
:10190000A26D934212D0744AD2F8903023F44073FF
:10191000D2F8901041F48031C2F89010D2F89010B3
:1019200021F48031C2F89010C2F8903013F0010F0A
:1019300012D0FFF7BDF9054606E0FFF7B9F9401BE5
:1019400041F28833984206D8634BD3F8903013F0B5
:10195000020FF2D000E003265EB95F49D1F8903063
:1019600023F44072A36D1343C1F8903002E0374670
:1019700000E03746B8F1000F04D0574A936D23F0CA
:1019800080539365236813F0010F08D05249D1F8B2
:10199000883023F00302236A1343C1F88830236898
:1019A00013F0020F08D04C49D1F8883023F00C0214
:1019B000636A1343C1F88830236813F0040F08D01A
:1019C0004549D1F8883023F03002A36A1343C1F8A7
:1019D0008830236813F0200F08D03F49D1F88830B1
:1019E00023F44062E36A1343C1F88830236813F498
:1019F000007F08D03849D1F8883023F44022E36BC7
:101A00001343C1F88830236813F4806F08D032493B
:101A1000D1F8883023F44012236C1343C1F8883086
:101A2000236813F0400F08D02B49D1F8883023F4F5
:101A30004052236B1343C1F88830236813F0800FA2
:101A400008D02549D1F8883023F44042636B134312
:101A5000C1F88830236813F4807F08D01E49D1F87C
:101A6000883023F44032A36B1343C1F888302368D5
:101A700013F4002F1AD01849D1F8883023F04062AF
:101A8000A36C1343C1F88830A36CB3F1006F04D189
:101A9000CB6843F48013CB6008E0B3F1806F05D1CD
:101AA0000121201DFFF704FE00B10746236813F44F
:101AB000802F1ED00849D1F8883023F04062E36CB3
:101AC0001343C1F88830E36CB3F1006F08D1CB68E1
:101AD00043F48013CB600CE0001002400070004023
:101AE000B3F1806F05D10121201DFFF7E1FD00B1A9
:101AF0000746236813F4804F12D01249D1F888307A
:101B000023F04052236D1343C1F88830236DB3F1A5
:101B1000805F05D10221201DFFF7CAFD00B10746F5
:101B2000236813F4004F08D00649D1F8883023F019
:101B30008042636D1343C1F88830384602B0BDE877
:101B4000F08100BF001002402DE9F04182B0002377
:101B5000BDE001249C40224000F0B8804D686E1E1C
:101B6000012E03D9112D01D0122D15D187684FEA0E
:101B7000430E032606FA0EF627EA0606CD6805FA96
:101B80000EF535438560456825EA04044D68C5F3C4
:101B900000159D402C434460C5685F000324BC4091
:101BA000E44305EA040E8D68BD404EEA0505C560B4
:101BB0004D68022D01D0122D13D1DE08083650F8E1
:101BC000268003F007054FEA850E0F2505FA0EF56E
:101BD00028EA050C0D6905FA0EF54CEA050540F8F2
:101BE0002650056804EA05064C6804F0030505FA6A
:101BF00007F4344304604C6814F0805F66D0384CBE
:101C0000256E45F001052566246E04F0010401945B
:101C1000019C9E08B51C334C54F8255003F0030476
:101C2000A4000F27A74025EA0707B0F1904F10D076
:101C30002D4DA8420FD005F58065A8420DD005F5C1
:101C40008065A8420BD005F58065A84209D104251E
:101C500008E0002506E0012504E0022502E0032556
:101C600000E0072505FA04F43C4302361D4D45F813
:101C700026401E4C2568D44305EA04064F6817F435
:101C8000803F01D042EA0506184D2E606D6804EAD7
:101C900005064F6817F4003F01D042EA0506134DD0
:101CA0006E60AD6804EA05064F6817F4801F01D026
:101CB00042EA05060D4DAE60ED682C404E6816F404
:101CC000001F01D042EA0504084AD46001330A68C3
:101CD00032FA03F47FF43DAF02B0BDE8F08100BFFB
:101CE00000100240000001400004004800040140D0
:101CF0000AB1816170478162704700BF90F825305A
:101D0000DBB2022B06D00423C363002380F8243007
:101D1000012070470268136823F00E031360026805
:101D2000136823F001031360016C436C03F01C0380
:101D3000012202FA03F34B6080F82520002380F88B
:101D400024301846704700BF08B590F82530DBB244
:101D5000022B03D00423C363012008BD026813686B
:101D600023F00E0313600268136823F0010313606D
:101D7000016C436C03F01C03012202FA03F34B6075
:101D800080F82520002380F82430836B13B1984716
:101D9000002008BD002008BD024B186800F4C06098
:101DA000704700BF00700040B0F5007F27D11F4B87
:101DB0001B6803F4C063B3F5007F30D01B4A13687F
:101DC00023F4C06343F400731360194B1A68322381
:101DD00003FB02F3174AA2FB03239B0C013300E031
:101DE000013B124A526912F4806F01D0002BF7D1E7
:101DF0000E4B5B6913F4806F13D0032070470B4BBD
:101E00001B6803F4C063B3F5806F0CD0074A1368F6
:101E100023F4C06343F48063136000207047002004
:101E20007047002070470020704700BF00700040DE
:101E30000800002083DE1B43074AD36823F4E063D5
:101E40001B041B0C000200F4E060184340F0BF606C
:101E500040F40030D060704700ED00E030B4164B25
:101E6000DB68C3F30223C3F10704042C28BF042456
:101E70001D1D062D01D9DD1E00E00025012303FAFA
:101E800004F4013C2140A940AB40013B1A400A4305
:101E9000002808DB1201D2B200F1604000F5614079
:101EA00080F8002305E000F00F001201D2B2034BCE
:101EB0001A5430BC704700BF00ED00E014ED00E0A4
:101EC000002808DB420900F01F00012303FA00F09C
:101ED000014B43F82200704700E100E0002800F0C9
:101EE000A48038B5044690F8203013F0FF0F01D1DC
:101EF000FEF7DCFD2268136823F002031360FEF78F
:101F0000D7FE05460DE0FEF7D3FE401B0A2808D990
:101F1000636A43F400336362052384F820300120B0
:101F200038BD23685A6812F0020FECD11A6842F0EB
:101F300001021A60FEF7BCFE05460DE0FEF7B8FE92
:101F4000401B0A2808D9636A43F4003363620523FF
:101F500084F82030012038BD23685A6812F0010F40
:101F6000ECD0227E012A04D11A6842F080021A6065
:101F700003E01A6822F080021A60637E012B05D10B
:101F80002268136843F04003136004E0226813687A
:101F900023F040031360A37E012B05D12268136850
:101FA00043F02003136004E02268136823F0200349
:101FB0001360E37E012B05D12268136823F0100320
:101FC000136004E02268136843F010031360237F5A
:101FD000012B05D12268136843F00803136004E065
:101FE0002268136823F008031360637F012B05D177
:101FF0002268136843F00403136004E02268136846
:1020000023F0040313602168A268E3681A4323697C
:102010001A4363691A436368013B1343CB61002091
:102020006062012384F8203038BD0120704700BF72
:10203000704700BF704700BF704700BF704700BFC8
:10204000704700BF704700BF704700BF704700BFB8
:10205000704700BF704700BF704700BF704700BFA8
:10206000704700BF2DE9F84F054603685C695F685B
:102070009E68D3F80C90D3F81080D3F818A014F011
:10208000010F5AD016F0010F14D001229A6016F0F9
:10209000020F04D0FFF7CCFF4FF0000B12E016F058
:1020A000040F0AD116F0080F0AD1FFF7C7FF4FF04F
:1020B000000B07E04FF0000B04E04FF4006B01E071
:1020C0004FF4805B16F4807F19D02B684FF4807238
:1020D0009A6016F4007F03D02846FFF7ABFF0EE0AE
:1020E00016F4806F02D04BF4005B08E016F4006F2A
:1020F00002D04BF4804B02E02846FFF7A1FF16F414
:10210000803F1CD02B684FF480329A6016F4003F59
:1021100003D02846FFF790FF11E016F4802F02D07D
:102120004BF4004B0BE016F4002F02D04BF4803B35
:1021300005E02846FFF786FF01E04FF0000B14F0A2
:10214000080F07D019F0100F04D04BF4007B2B6858
:102150001022DA6014F0040F08D019F0080F05D02F
:102160002B680822DA602846FFF770FF14F0020F90
:1021700007D02B68DB6813F0030F02D02846FFF767
:1021800063FF14F0400F07D018F0100F04D04BF489
:10219000806B2B6810221A6114F0200F08D018F001
:1021A000080F05D02B6808221A612846FFF752FF56
:1021B00014F0100F07D02B681B6913F0030F02D027
:1021C0002846FFF745FF14F4003F08D017F0100F22
:1021D00005D02B6810225A602846FFF73DFF14F403
:1021E000803F08D017F0080F05D02B6808225A60EE
:1021F0002846FFF733FF14F4004F4ED017F0040FBA
:1022000048D014F4807F04D01AF0010F01D04BF0B5
:10221000010B14F4007F04D01AF0020F01D04BF030
:10222000020B14F4806F04D01AF0040F01D04BF0AD
:10223000040B14F4006F2DD01AF0700A2AD0BAF1F2
:10224000300F17D006D8BAF1100F0DD0BAF1200F09
:102250000DD01AE0BAF1500F12D0BAF1600F12D0BF
:10226000BAF1400F11D108E04BF0080B0DE04BF034
:10227000100B0AE04BF0200B07E04BF0400B04E0A2
:102280004BF0800B01E04BF4807B2A68936923F0CC
:10229000700393612B6804225A60BBF1000F06D0D3
:1022A0006B6A4BEA03036B622846FFF7D9FEBDE871
:1022B000F88F00BF30B4036A23F001030362026A9F
:1022C0004568836923F4803323F073030C68234348
:1022D00022F002028C682243144CA04207D004F57D
:1022E000A054A04203D004F58064A04205D122F09E
:1022F0000802CC68224322F004020C4CA04207D012
:1023000004F5A054A04203D004F58064A04205D196
:1023100025F440754C692C438D69254345608361E4
:102320004B684363026230BC704700BF002C014021
:1023300030B4036A23F480730362036A4468C26999
:1023400022F4803222F073020D682A4323F40073D2
:102350008D6843EA0523124DA84206D123F4006399
:10236000CD6843EA052323F480630D4DA84207D0CE
:1023700005F5A055A84203D005F58065A84207D110
:1023800024F440544D6944EA05148D6944EA051467
:102390004460C2614A68C263036230BC704700BFD8
:1023A000002C014030B4036A23F480530362026AB4
:1023B0004468C36923F0807323F4E6430D6843EA5D
:1023C000052322F400528D6842EA05320B4DA842E3
:1023D00007D005F5A055A84203D005F58065A842B1
:1023E00004D124F480444D6944EA85144460C361F7
:1023F0004B680364026230BC704700BF002C014090
:1024000030B4036A23F480330362036A4568426D83
:1024100022F4803222F070020C68224323F400334D
:102420008C6843EA04430B4CA04207D004F5A05447
:10243000A04203D004F58064A04204D125F4803585
:102440004C6945EA0425456042654A688265036235
:1024500030BC7047002C014030B4036A23F4801371
:102460000362026A4468436D23F0807323F4E043FF
:102470000D6843EA052322F400128D6842EA0552F2
:102480000B4DA84207D005F5A055A84203D005F58D
:102490008065A84204D124F480244D6944EA85244F
:1024A000446043654B68C365026230BC704700BF3F
:1024B000002C014010B4036A046A24F00104046291
:1024C000846924F0F00444EA021223F00A03194359
:1024D000826101625DF8044B704700BF10B4036A6B
:1024E00023F0100303628469036A24F4704444EA0D
:1024F000023223F0A00343EA0111826101625DF818
:10250000044B7047836823F07003194341F00701BF
:102510008160704790F83D30DBB2012B26D1022359
:1025200080F83D300268D36843F00103D36003684C
:10253000114A934206D0B3F1804F03D002F5A05266
:1025400093420DD199680D4A0A40062A10D0B2F57F
:10255000803F0FD01A6842F001021A6000207047D5
:102560001A6842F001021A6000207047012070478B
:102570000020704700207047002C01400700010038
:10258000704700BF704700BF704700BF704700BF73
:10259000704700BF10B5044603681A6912F0020FB5
:1025A00017D0DA6812F0020F13D06FF002021A612E
:1025B0000123037703689B6913F0030F02D0FFF731
:1025C000E3FF04E0FFF7DEFF2046FFF7DFFF002315
:1025D000237723681A6912F0040F19D0DA6812F011
:1025E000040F15D06FF004021A61022323772368C9
:1025F0009B6913F4407F03D02046FFF7C5FF05E039
:102600002046FFF7BFFF2046FFF7C0FF00232377D8
:1026100023681A6912F0080F19D0DA6812F0080F4F
:1026200015D06FF008021A61042323772368DB6951
:1026300013F0030F03D02046FFF7A6FF05E0204666
:10264000FFF7A0FF2046FFF7A1FF002323772368B1
:102650001A6912F0100F19D0DA6812F0100F15D0A5
:102660006FF010021A61082323772368DB6913F4E3
:10267000407F03D02046FFF787FF05E02046FFF7A5
:1026800081FF2046FFF782FF0023237723681A6922
:1026900012F0010F09D0DA6812F0010F05D06FF0C7
:1026A00001021A612046FDF7B9FF23681A6912F08A
:1026B000800F09D0DA6812F0800F05D06FF0800229
:1026C0001A61204600F038FA23681A6912F4807FF4
:1026D00009D0DA6812F0800F05D06FF480721A61A9
:1026E000204600F02BFA23681A6912F0400F09D037
:1026F000DA6812F0400F05D06FF040021A612046F0
:10270000FFF746FF23681A6912F0200F09D0DA6834
:1027100012F0200F05D06FF020021A61204600F061
:1027200009FA10BD03681A4A904202D0B0F1804FF6
:1027300003D123F070034A681343154A90420AD02C
:10274000B0F1804F07D002F5A052904203D002F5BD
:102750008062904203D123F44073CA68134323F08C
:1027600080034A69134303608B68C3620B6883620A
:10277000074B984207D003F5A053984203D003F5C6
:102780008063984201D10B69036301234361704761
:10279000002C014068B310B5044690F83D3013F0AA
:1027A000FF0F04D1002380F83C30FEF7CBF9022361
:1027B00084F83D30211D2068FFF7B4FF012384F821
:1027C000483084F83E3084F83F3084F8403084F854
:1027D000413084F8423084F8433084F8443084F83F
:1027E000453084F8463084F8473084F83D30002086
:1027F00010BD0120704700BF68B310B5044690F8C3
:102800003D3013F0FF0F04D1002380F83C30FFF778
:10281000B7FE022384F83D30211D2068FFF782FFB8
:10282000012384F8483084F83E3084F83F3084F83F
:10283000403084F8413084F8423084F8433084F8E2
:10284000443084F8453084F8463084F8473084F8C2
:102850003D30002010BD0120704700BF30B4036A36
:1028600023F010030362036A4468826922F08072D5
:1028700022F4E6420D6842EA052223F020038D6827
:1028800043EA0513114DA84206D123F08003CD6819
:1028900043EA051323F040030C4DA84207D005F589
:1028A000A055A84203D005F58065A84207D124F4BD
:1028B00040644D6944EA85048D6944EA85044460B6
:1028C00082614A688263036230BC7047002C014019
:1028D00090F83C30012B2ED010B50446012380F82F
:1028E0003C30142A23D8DFE802F00B2222220F22E8
:1028F000222213222222172222221B2222221F00FE
:102900000068FFF7D7FC12E00068FFF7A7FF0EE0B2
:102910000068FFF70DFD0AE00068FFF743FD06E0E1
:102920000068FFF76DFD02E00068FFF795FD0020ED
:1029300084F83C0010BD0220704700BF10B48468CA
:1029400024F47F4442EA0323194344EA01038360E9
:102950005DF8044B704700BF90F83C30012B68D005
:1029600010B50446012380F83C30022380F83D3046
:1029700002689068304B034093600B68402B43D053
:102980000AD8102B4AD002D8002B47D04AE0202B7F
:1029900044D0302B42D045E0602B2BD002D8502BB6
:1029A0001ED03FE0702B03D0B3F5005F0CD039E0B0
:1029B000CB684A6889682068FFF7C0FF226893687F
:1029C00043F0770393602DE0CB684A6889682068FC
:1029D000FFF7B4FF2268936843F48043936021E0DB
:1029E000CA6849682068FFF765FD50212068FFF735
:1029F00089FD17E0CA6849682068FFF76FFD60210C
:102A00002068FFF77FFD0DE0CA6849682068FFF77E
:102A100051FD40212068FFF775FD03E0194620684D
:102A2000FFF770FD012384F83D30002084F83C005E
:102A300010BD0220704700BF8800FEFF90F83C30B8
:102A4000012B2DD030B4012380F83C30022380F8D4
:102A50003D3003685A689D68134CA34203D122F4A9
:102A600070024C68224322F070020C6822435A60C4
:102A700003680D4A934206D0B3F1804F03D002F5AC
:102A8000A052934204D125F080058A6815439D60C9
:102A9000012380F83D30002380F83C30184601E0E7
:102AA0000220704730BC7047002C014090F83C3049
:102AB000012B38D010B4012380F83C30CB6823F4CC
:102AC00040728B68134323F480624B68134323F4F2
:102AD00000620B68134323F480520B69134323F401
:102AE00000524B69134323F480428B6A134323F44F
:102AF00070238A6943EA024302680D4CA2420CD15A
:102B000023F470034C6A43EA045323F08073CC69C6
:102B1000234323F000740B6A23435364002380F89B
:102B20003C30184601E0022070475DF8044B7047C6
:102B3000002C0140704700BF704700BF704700BFC6
:102B40000268136823F4907313600268936823F09B
:102B500001039360036E012B04D10268136823F014
:102B6000100313602023C367002303664366704786
:102B7000704700BF08B501680A6822F040020A6089
:102B80002022826700228266FFF7F2FF08BD00BFA5
:102B9000704700BF08B5806A0023A0F85A30A0F83B
:102BA0005230FFF7F5FF08BD704700BF70B504460F
:102BB0000168CB6908688D6840F60F021A400CD195
:102BC00013F0200F09D010F0200F06D0636E002BF9
:102BD00000F021812046984770BD002A00F08F80C8
:102BE00015F0010203D18C4E304200F0888013F0C2
:102BF000010F09D010F4807F06D001250D62D4F8B2
:102C000080102943C4F8801013F0020F09D042B19C
:102C1000216802250D62D4F8801041F00401C4F847
:102C2000801013F0040F09D042B1216804250D6211
:102C3000D4F8801041F00201C4F8801013F0080F9E
:102C40000BD010F0200F00D13AB122680821116298
:102C5000D4F880200A43C4F8802013F4006F0CD00D
:102C600010F0806F09D022684FF400611162D4F82F
:102C7000802042F02002C4F88020D4F88020002A6E
:102C800000F0C98013F0200F06D010F0200F03D001
:102C9000636E0BB120469847D4F8802023689B6868
:102CA00013F0400F02D112F0280F21D02046FFF779
:102CB00047FF23689A6812F0400F15D09A6822F0F7
:102CC00040029A60236F5BB1544A9A63206FFFF70A
:102CD0003BF8002800F09F80206F836B984770BD01
:102CE0002046FFF755FF70BD2046FFF751FF70BD2E
:102CF0002046FFF74DFF0023C4F8803070BD226EE0
:102D0000012A67D113F0100F64D010F0100F61D0BA
:102D100010230B622268936813F0400F35D0216FA7
:102D20000B685B689BB2002B75D0B4F858008342E7
:102D300071D2A4F85A300B681B6813F0200F19D118
:102D4000136823F4807313602268936823F00103EF
:102D500093602268936823F0400393602023E36725
:102D6000002323662268136823F010031360206F8A
:102D7000FEF7C4FFB4F85830B4F85A1089B2591AA3
:102D800089B22046FFF710FF70BDB4F85830B4F890
:102D90005A1089B2591A89B2B4F85A309BB2002B32
:102DA00039D0002937D0136823F490731360226858
:102DB000936823F0010393602023E36700232366D5
:102DC00063662268136823F0100313602046FFF740
:102DD000EBFE70BD13F4801F09D015F4800F06D0F0
:102DE0004FF480130B62204600F0FEFA70BD13F022
:102DF000800F07D010F0800F04D0A36E5BB1204687
:102E0000984770BD13F0400F05D010F0400F02D06E
:102E10002046FFF7AFFE70BD20010004952B00088F
:102E20002DE9F0480446826803691A4343691A434E
:102E3000C3691A4301680868994B034013430B6048
:102E400021684B6823F44052E36813434B60A16947
:102E50002268944B9A4201D0236A1943936823F461
:102E600030630B43936023688F4A934213D102F57A
:102E70005842D2F8882002F00302032A09D8DFE87A
:102E800002F002045F06012263E0042261E00822EE
:102E90005FE010225DE0854A934218D102F5E632E8
:102EA000D2F8882002F00C020C2A0ED8DFE802F0DB
:102EB000070D0D0D090D0D0D4A0D0D0D0B00002216
:102EC00047E0042245E0082243E0102241E0784A2E
:102ED000934217D102F5E432D2F8882002F0300292
:102EE000102A09D001D82AB10AE0202A2CD0302A91
:102EF00004D005E000222CE004222AE0082228E089
:102F0000102226E0674A934220D102F5C832D2F857
:102F1000882002F44062B2F5806F0BD001D83AB13C
:102F20000CE0B2F5006F13D0B2F5406F04D005E0AD
:102F300000220EE004220CE008220AE0102208E041
:102F4000022206E0022204E0022202E0102200E057
:102F5000022254498B4238D1082A11D8DFE802F006
:102F6000081005100C1010101300524800250DE039
:102F7000FEF75CFB002509E0FDF7E8FE002505E013
:102F80000020012502E04FF400400025002800F059
:102F90009A80626802EB420398427DD3B0EB023F15
:102FA0007CD80023070E0602500816EB000B47F1F1
:102FB000000C58466146FDF76BF9A0F540723E4B98
:102FC0009A427BD82368D8607DE0E369B3F5004F6F
:102FD00034D1082A15D8DFE802F0080C05141014C3
:102FE000141417003348002511E0FEF71FFB0025DD
:102FF0000DE0FEF72DFB002509E0FDF7A7FE0025FB
:1030000005E00020012502E04FF4004000250028E3
:1030100059D06268530803EB4000B0FBF2F083B272
:10302000103B4FF6EF7293424AD883B223F00F035E
:10303000C0F3420018432368D86044E0082A15D83A
:10304000DFE802F0080C05141014141417001948D6
:10305000002511E0FEF7EAFA00250DE0FEF7F8FA88
:10306000002509E0FDF772FE002505E0002001259E
:1030700002E04FF40040002528B3636800EB5300E2
:10308000B0FBF3F080B2A0F110024FF6EF739A425A
:1030900018D82368D86016E0012514E0012512E055
:1030A000F369FFEF00800040003801400044004019
:1030B000004800400024F400FFFC0F00012502E05E
:1030C000012500E0012500236366A3662846BDE8CC
:1030D000F08800BF436A13F0010F06D001684B6807
:1030E00023F40032836A13434B60436A13F0020FE8
:1030F00006D001684B6823F48032C36A13434B60E7
:10310000436A13F0040F06D001684B6823F4802251
:10311000036B13434B60436A13F0080F06D001683A
:103120004B6823F40042436B13434B60436A13F034
:10313000100F06D001688B6823F48052836B134311
:103140008B60436A13F0200F06D001688B6823F46C
:103150000052C36B13438B60436A13F0400F11D0CE
:1031600001684B6823F48012036C13434B60036CBB
:10317000B3F5801F06D101684B6823F4C002436C8D
:1031800013434B60436A13F0800F06D001684B680D
:1031900023F40022836C13434B6070472DE9F04108
:1031A00004460F4616469846069D3DE0B5F1FF3FA2
:1031B0003AD0FDF77DFDC8EB0000854200D395B9FC
:1031C0002268136823F4D07313602268936823F095
:1031D000010393602023A367E367002384F874301E
:1031E0000320BDE8F08123681A6812F0040F1BD099
:1031F000DA6912F4006F17D04FF400621A62226885
:10320000136823F4D07313602268936823F00103DA
:1032100093602023A367E367C4F88030002384F819
:1032200074300320BDE8F0812368DB6937EA0303CB
:103230000CBF01230023B342B8D00020BDE8F081C9
:103240002DE9F04182B01E46836F202B57D10446F2
:103250000D469046002954D0002A54D090F874307E
:10326000012B52D0012380F874300023C0F8803045
:1032700021238367FDF71CFD0746A4F85080A4F8BE
:103280005280A368B3F5805F04D123692BB14FF05E
:10329000000804E04FF0000801E0A84600250023E4
:1032A00084F874301AE000963B46002280212046C4
:1032B000FFF774FF58BB35B9226838F8023BC3F3F7
:1032C0000803138503E0236815F8012B1A85B4F869
:1032D00052309BB2013B9BB2A4F85230B4F852304A
:1032E0009BB2002BDFD100963B46002240212046B6
:1032F000FFF754FF034660B92022A2670AE00223C9
:1033000008E0012306E0012304E0022302E0032396
:1033100000E00323184602B0BDE8F08130B583B069
:1033200004460023C0F88030FDF7C2FC0546236840
:103330001B6813F0080F0AD06FF07E43009303461A
:1033400000224FF400112046FFF728FFB8B9236888
:103350001B6813F0040F0AD06FF07E4300932B46D6
:1033600000224FF480012046FFF718FF48B92023C0
:10337000A367E3670020206684F8740002E003205E
:1033800000E0032003B030BD58B310B50446836F8E
:103390001BB980F87430FDF7E9FB2423A36722688A
:1033A000136823F0010313602046FFF739FD01285D
:1033B00019D0636A13B12046FFF78CFE2268536868
:1033C00023F4904353602268936823F02A039360A8
:1033D0002268136843F0010313602046FFF79EFF45
:1033E00010BD0120704710BD704700BF0E4AD2F8D3
:1033F000883043F47003C2F888300C4B1A6842F0EE
:1034000001021A60002199601A6822F0A85222F481
:1034100010221A604FF48052DA601A6822F4802277
:103420001A609961704700BF00ED00E00010024093
:10343000054A136843F080731360044A136843F02D
:1034400001031360704700BFFCED00E0001000E0D6
:1034500010B50138012806D900F0A6F80923036049
:103460004FF0FF3010BD14464FF47A7392B2044807
:10347000FFF7E6FE08B1002010BD204610BD00BFDA
:1034800038090020014A024B1A60FEE70400FA05E1
:103490000CED00E0074B1A68013A074B1B681A4015
:1034A000064BC3F80028C3F808380022A3F80C28FC
:1034B000704700BF0C000020440A0020C800002014
:1034C000F8B504464FF00062154B1A60154E4FF4E4
:1034D00000633360144B1B889B021344134D2B6015
:1034E000FFF7D8FF3168124800F092F829681148B8
:1034F00000F08EF8104F3C60104E3460104D2C6080
:10350000104800F085F839680F4800F081F83168FC
:103510000E4800F07DF829680D4800F079F8F8BDF4
:10352000440A00200C000020E075FF1F4C0A002018
:1035300088470008A047000898000020B800002035
:10354000A8000020B8470008C4470008D04700087A
:10355000DC470008DFF834D0FFF748FF002103E024
:103560000B4B5B58435004310A480B4B42189A42AC
:10357000F6D30A4A02E0002342F8043B084B9A4281
:10358000F9D300F017F8FDF735F9FEE700C0002089
:10359000784A000800000020780000207800002011
:1035A000540A0020FEE70000014B1868704700BF76
:1035B0007000002070B50E4B0E4CE41AA4100025CC
:1035C0001E46A54204D056F8253098470135F8E745
:1035D00000F056FF084C094BE41AA41000251E46C3
:1035E000A54204D056F8253098470135F8E770BD5C
:1035F000684A0008684A00086C4A0008684A0008DF
:1036000002440346934202D003F8011BFAE77047D5
:103610000FB40A4B13B51C6824B1A36913B9204633
:1036200000F04EF805AB049AA1680193204600F023
:1036300059F902B0BDE8104004B070477000002096
:10364000014900F0A9B800BFD5410008002310B51A
:10365000044603604360836081814366C2810361E5
:1036600043618361194608225C30FFF7C9FF054BAF
:103670006362054BA362054BE362054B246223633F
:1036800010BD00BF753E0008973E0008CF3E000801
:10369000F33E000870B568234D1E5D430E4605F1EC
:1036A000740100F097F8044640B1002180E8420020
:1036B0000C30A06005F16802FFF7A2FF204670BD44
:1036C000836910B5044633BB8364C3640365124B3E
:1036D000124A1B688262984204BF0123836100F092
:1036E0001FF86060204600F01BF8A060204600F044
:1036F00017F80022E06004216068FFF7A7FF0122AD
:103700000921A068FFF7A2FF02221221E068FFF75B
:103710009DFF0123A36110BDC84900084136000880
:10372000F8B51C4B1E68B369074613B93046FFF75E
:10373000C7FF4836B4687368013B04D4B4F90C5031
:103740007DB16834F8E733680BB13668F2E70421DD
:103750003846FFF79FFF30600028F6D10C233B600E
:10376000F8BD4FF6FF73E3810123A38165662560F1
:10377000A560656025616561A5610822294604F19F
:103780005C00FFF73DFF6563A563A564E564204623
:10379000F8BD00BFC84900082DE9F84380468946B6
:1037A00000F14804002694B1A5686768013F0CD475
:1037B000AB89012B07D9B5F90E30013303D0294667
:1037C0004046C84706436835F0E72468EBE73046D3
:1037D000BDE8F88370B5CD1C25F0030508350C2D28
:1037E00038BF0C25002D064601DBA94202D90C2367
:1037F000336046E000F08AFD234B1C681A462146E0
:10380000A1B10B685B1B0ED40B2B03D90B60CC183A
:10381000CD501EE08C420DBF63684B68636013603F
:1038200018BF0C4615E00C464968E9E7174C2368B9
:103830001BB9304600F00EFB20602946304600F0F0
:1038400009FB431C18D0C41C24F00304A0420DD172
:103850002560304600F05BFD04F10B00231D20F0D5
:103860000700C31A0ED05A42E25070BD211A3046EA
:1038700000F0F0FA0130EBD10C233360304600F059
:1038800046FD002070BD00BFE0080020DC080020DD
:103890009368013B002B10B4936009DA9469A3424A
:1038A00002DBCBB20A2B03D15DF8044B00F026BB40
:1038B0001368581C10601970C8B25DF8044B70474B
:1038C000F8B506460F461446D518AC4208D03A461D
:1038D00014F8011B3046FFF7DBFF431CF5D100E075
:1038E0000020F8BD2DE9F04F9DB00C46174603931C
:1038F000064618B183690BB9FFF7E2FE7F4B9C4285
:1039000001D1746808E07E4B9C4201D1B46803E0A9
:103910007C4B9C4208BFF468A38918070CD5236927
:1039200053B10023099320238DF8293030238DF8DB
:103930002A30DFF8D4B144E02146304600F044FBA1
:103940000028EED04FF0FF30D5E0039A111D126829
:103950000391002A80F28C80524243F002000792C9
:10396000049098F800302E2B00F08480032298F801
:1039700000106548FCF73CFC48B14023CBEB00004D
:1039800003FA00F0049B1843049008F1010898F82A
:1039900000105E488DF82810062208F10107FCF798
:1039A00027FC002800F09580594B002B40F08880C0
:1039B000039B073323F0070308330393099B534406
:1039C0000993B846454615F8013B1BB9B8EB070902
:1039D0000FD003E0252BF9D0A846F3E74B463A4633
:1039E00021463046FFF76CFF01307FD0099B4B44E6
:1039F000099398F80030002B78D000234FF0FF3265
:103A000004930793059206938DF853301A93012778
:103A1000052229783F48FCF7EBFB05F10108049BE0
:103A200038B13C4A801A07FA00F018430490454622
:103A3000EEE7D90644BF20228DF853201A0744BF71
:103A40002B228DF853202A782A2A3FF47EAF079A3A
:103A500000210A20A846013598F80030303B092B98
:103A600003D800FB02320121F4E700293FF479AFCB
:103A7000079276E798F801302A2B0BD1039B1A1D89
:103A80001B680392002BB8BF4FF0FF3308F1020808
:103A900005936BE70023059308F1010019460A25F9
:103AA0008046013098F80020303A092A03D805FBF7
:103AB00001210123F4E7002B3FF458AF059155E7AE
:103AC00003AB00932246144B04A93046AFF30080A9
:103AD00007E003AB009322460F4B04A9304600F0E9
:103AE00093F8B0F1FF3F82467FF468AFA3895B068D
:103AF0003FF528AF09981DB0BDE8F08FCC4900080C
:103B0000EC4900080C4A0008324A0008364A00080E
:103B1000000000002C4A0008C13800082DE9F047D9
:103B200091461F460A698B68DDF820809342B8BF32
:103B30001346C9F8003091F8432006460C4612B1EE
:103B40000133C9F800302368990642BFD9F8003024
:103B50000233C9F80030256815F0060510D104F1CC
:103B6000190A07E00123524639463046C047013062
:103B70001AD00135E368D9F800209B1A9D42F1DB89
:103B800094F843302268003318BF012392060FD502
:103B9000E1185A1C302081F84300224494F8451063
:103BA00082F84310023303E04FF0FF30BDE8F087A6
:103BB00004F1430239463046C0470130F4D0226850
:103BC000D9F80050E36802F00602042A08BF5D1B22
:103BD0002269A3680CBF25EAE57500259342C4BF9E
:103BE0009B1AED184FF000091A344D4509D00123F6
:103BF000224639463046C0470130D5D009F1010987
:103C0000F3E70020BDE8F0872DE9F04317460A7E70
:103C100085B06E2A984606460C460C9B01F1430E71
:103C200000F0AE8011D8632A22D009D8002A00F013
:103C3000BB80582A40F0CA8081F84520834955E06E
:103C4000642A1ED0692A1CD0C0E0732A00F0B0801C
:103C500009D86F2A2ED0702A40F0B8800A6842F046
:103C600020020A603EE0752A24D0782A3AD0ADE0DE
:103C70001A6801F14205111D1960136884F8423079
:103C8000A8E021681A6811F0800F02D0111D196098
:103C900008E011F0400F02F10401196002D0B2F9FE
:103CA000003000E01368002B3CDA2D225B4284F8E0
:103CB000432037E021681A6811F0800F02D0111DEF
:103CC000196007E011F0400F02F10401196001D002
:103CD000138800E01368227E5C496F2A14BF0A2211
:103CE00008221BE078225A4984F845202268186887
:103CF00012F0800F00F104051D6003D1550601D5B7
:103D0000038800E00368D00744BF42F0200222602D
:103D10001BB9226822F0200222601022002084F8C1
:103D2000430001E049490A226568A560002D08DBCF
:103D3000206820F0040020602BB9002D7DD175464D
:103D40000CE0002B79D07546B3FBF2F002FB103388
:103D5000CB5C05F8013D03460028F5D1082A0BD1BC
:103D60002368DA0708D5236962689A42DEBF3023E8
:103D700005F8013C05F1FF35C5EB0E0323612EE08C
:103D800008681A68496910F0800F03D0101D186088
:103D9000136808E010F0400F02F104001860136887
:103DA00001D0198000E0196000232361754616E0F8
:103DB0001A68111D19601568626800212846FCF711
:103DC00017FA08B1401B6060636804E004F1420523
:103DD00084F8422001232361002384F84330CDF886
:103DE00000803B4603AA21463046FFF797FE01308C
:103DF00002D14FF0FF3026E023692A46394630468B
:103E0000C0470130F5D023689B0710D5002504F189
:103E1000190907E001234A4639463046C0470130B8
:103E2000E7D00135E368039A9B1A9D42F2DBE06814
:103E3000039B9842B8BF184605E00B7884F84230DF
:103E400004F142058AE705B0BDE8F0833D4A000869
:103E50004E4A000838B5064C002305460846236044
:103E600000F000FB431C02D1236803B12B6038BD76
:103E7000500A002010B50C46B1F90E1000F096FA69
:103E80000028ABBF636DA3891B1823F48053ACBF1C
:103E90006365A38110BD2DE9F0411F468B89DB05C9
:103EA00005460C46164605D502230022B1F90E1030
:103EB00000F0BAF9A389B4F90E1023F48053A3815A
:103EC00032463B462846BDE8F04100F06BB810B5DD
:103ED0000C46B1F90E1000F0A7F9431CA38915BFD9
:103EE000606523F4805343F48053A38118BFA381FA
:103EF00010BDB1F90E1000F0D5B80000F8B50F46AE
:103F00001446054618B183690BB9FFF7D9FB224B5C
:103F10009C4201D16C6808E0204B9C4201D1AC6806
:103F200003E01F4B9C4208BFEC68A369A360A38910
:103F30001A0709D523693BB123682069181A6369F8
:103F40009842FEB20FDB08E02146284600F03CF81C
:103F50000028F1D04FF0FF361BE02146284600F044
:103F600039F90028F6D1A368013BA36023685A1CE5
:103F700022601F7063690130984204D0A389DB0777
:103F800007D50A2E05D12146284600F023F900283E
:103F9000E0D13046F8BD00BFCC490008EC4900082C
:103FA0000C4A000838B5074C054608461146002261
:103FB00022601A46FFF74CFA431C02D1236803B172
:103FC0002B6038BD500A0020324B70B51D68064684
:103FD0000C4625B1AB6913B92846FFF771FB2E4B90
:103FE0009C4201D16C6808E02C4B9C4201D1AC682A
:103FF00003E02B4B9C4208BFEC68B4F90C309AB23A
:1040000015071DD4D00602D4092232603AE05107C8
:1040100012D5616B41B104F14403994202D030469C
:1040200000F076F900236363A38923F02403A381BE
:104030000023636023692360A38943F00803A381FD
:1040400023694BB9A38903F42073B3F5007F03D030
:104050002146304600F01EF9A28912F0010305D076
:104060000023A36063695B42A36103E0920758BF2A
:104070006369A36023695BB9B4F90C3003F0800075
:1040800080B230B143F04003A3814FF0FF3070BDE8
:10409000002070BD70000020CC490008EC490008E9
:1040A0000C4A000838B5064C002305460846236034
:1040B00000F0B0F9431C02D1236803B12B6038BD76
:1040C000500A00208A892DE9F041054610070C4668
:1040D00059D44B68002B02DC0B6C002B17DDE66A11
:1040E000AEB102F48052002392B22F682B600AB165
:1040F000606D15E0216A01232846B047411C0FD1AD
:104100002B686BB11D2B01D0162B03D12F60002023
:10411000BDE8F081A38943F04003A381BDE8F081AD
:10412000A3895A0705D56368C01A636B0BB1236C6A
:10413000C01A00230246E66A216A2846B047431C9B
:10414000A38906D129681D293AD8214ACA40D60731
:1041500036D500226260D9042269226004D5421C4F
:1041600001D12B6803B96065616B2F600029CED047
:1041700004F14403994202D0284600F0C9F8002017
:104180006063BDE8F0810F69002FC0D093070E680F
:1041900008BF4B690F6018BF0023C7EB06088B6090
:1041A00002E00744C0EB0808B8F1000FAFDD43465A
:1041B0003A46216AA66A2846B0470028F1DCA3895E
:1041C00043F04003A3814FF0FF30BDE8F08100BF12
:1041D0000100402038B50B6905460C46DBB118B12B
:1041E00083690BB9FFF76CFA0C4B9C4201D16C68E8
:1041F00008E00B4B9C4201D1AC6803E0094B9C42A8
:1042000008BFEC68B4F90C302BB121462846BDE854
:104210003840FFF757BF002038BD00BFCC49000829
:10422000EC4900080C4A000838B5074C054608461A
:104230001146002222601A4600F004F9431C02D104
:10424000236803B12B6038BD500A002070B50E46BC
:10425000B1F90E10002990B014461D4606DA00236D
:104260002B60B3891A060ED540230EE001AA00F098
:10427000AFF80028F3DB029A02F47042A2F5005373
:104280005A425A412A604FF480630020236010B0E4
:1042900070BD00008B8973B59E0705460C4610D48F
:1042A00001AB6A46FFF7D2FF009906462846FFF7A2
:1042B00091FA68B9B4F90C309A0522D443F002039C
:1042C000A38104F14703236023610123636118E0A4
:1042D0000D4BAB62A389206043F08003A381009B58
:1042E0006361019B20614BB1B4F90E10284600F0C8
:1042F00081F818B1A38943F00103A381A089304359
:10430000A08102B070BD00BF413600087047704701
:1043100038B50546002946D051F8043C0C1F002B47
:10432000B8BFE418FFF7F2FF1F4A1368114613B92C
:104330006360146032E0A3420ED92268A018834261
:1043400004BF18685B68636004BF121822600C60C9
:1043500024E0A24203D813465A68002AF9D118680B
:104360001918A1420BD121680144581882421960E2
:1043700014D1106852685A60014419600EE002D9E5
:104380000C232B600AE021686018824204BF106889
:104390005268626004BF091821605C602846BDE86D
:1043A0003840FFF7B4BF38BDE008002038B5074CEF
:1043B000054608461146002222601A4600F04AF8D7
:1043C000431C02D1236803B12B6038BD500A002082
:1043D00038B5074C0023054608461146236000F017
:1043E00021F8431C02D1236803B12B6038BD00BF04
:1043F000500A002038B5064C0023054608462360C5
:1044000000F018F8431C02D1236803B12B6038BDBB
:10441000500A0020024B58221A604FF0FF307047BC
:10442000500A0020024B58221A604FF0FF307047AC
:10443000500A0020024B58221A600020704700BF2B
:10444000500A0020024B58221A604FF0FF3070478C
:10445000500A0020024B58221A604FF0FF3070477C
:10446000500A0020044A05491368002B08BF0B4678
:104470001844106018467047E4080020580A0020CD
:10448000F8B500BFF8BC08BC9E467047F8B500BF41
:08449000F8BC08BC9E46704711
:104498000A0A0A0D232323232323232323206C64BE
:1044A8007266697865644C343331205354415254F0
:1044B800530000000A0D436F6E74726F6C2F737493
:1044C8006174757320726567697374657220285208
:1044D80043435F43535229203A20253038780A0D48
:1044E80000000000436F6E74726F6C2F73746174F8
:1044F8007573207265676973746572202852434327
:104508005F43535229203A20253038782041667479
:10451800657220524D5646207772697474656E0A2A
:104528000D000000436F6E74726F6C2F73746174AA
:1045380075732072656769737465722028524343E6
:104548005F43535229203A20253038782041667439
:104558006572204C505752207772697474656E0AE0
:104568000D0000000A0D556E6971756520494420DB
:104578003A2025303858253038582530385800002A
:104588000A0D466C6173682073697A653A202020A9
:10459800202025754B0A0D000A0D0A4164647265D6
:1045A800737365733A20265F5F6170706A756D700A
:1045B80020253038582020205F5F6170706A756D43
:1045C8007020253038580A0D0A0000000A0D2535DC
:1045D80075206C647266697865644C343331207771
:1045E800616974696E6700000A0D0A23232323207A
:1045F8004174206F666673657420253038582061D1
:10460800646472657373202530385820697320629A
:104618006F67757320232323230A0D0A0000000007
:104628000A0D58206C647266697865644C343331BD
:1046380020737461727465642031323300000000A5
:10464800000000000000000001020304060708093A
:104658000000000001020304A0860100400D0300D1
:10466800801A060000350C0040420F0080841E00AE
:1046780000093D0000127A000024F40000366E01A3
:104688000048E801006CDC027772626C6B3A202506
:1046980064202558202558202530385820253038C2
:1046A800580A0D007772626C6B3A204341534520DB
:1046B800303A206E6F206E65656420746F207772C3
:1046C80069746520626C6F636B0A0D007772626CA7
:1046D8006B3A204341534520323A20657261736535
:1046E80020626C6F636B206265666F7265207772FB
:1046F8006974696E670A0D007772626C6B3A2043C1
:1047080041534520313A2077726974696E67206297
:104718006C6F636B0A0D00007772626C6B3A2070E5
:1047280061795B315D202558207061795B325D20AD
:1047380025580A0D000000007772626C6B3A2064FD
:10474800656661756C743A2025640A0D00000000E6
:10475800706164642063726F7373656420626C6F48
:10476800636B20626F756E646172793A2025303808
:10477800582020706164643A20253038780A0D008A
:10478800464C41534820424C4B20535A453A202529
:1047980064420A0D00000000464C41534820484935
:1047A80020414444523A203078253038580A0D00C8
:1047B80043414E20494427730A0D0000434D443AB3
:1047C80020253038580A0D005244203A2025303828
:1047D800580A0D005752203A20253038580A0D0043
:1047E8004E41434B303A202564202558202564202B
:1047F8002558202530385820253038580A0D000013
:104808004E4143314B3A2025642025582025642009
:104818002558202530385820253038580A0D0000F2
:1048280053656E64204E41434B3A20646C63206E9E
:104838006F7420383A2025640A0D000053656E64B1
:10484800204E41434B20737461727420616464721A
:10485800206F7574206F662072616E67653A202537
:1048680030385820255820253038582025303858D9
:104878000A0D00004861726420436F64656420611A
:1048880064647265737320636865636B206F757405
:104898002D6F662D72616E67653A000072635F6303
:1048A800726333323A202530385820253038582062
:1048B800253038580A0D000053656E642063726312
:1048C8002D33323A20253038580A0D00583A2066E0
:1048D8006C617368626C6F636B73697A653A2025E3
:1048E800582025582025582025580A0D000000007A
:1048F80052343A207265616420616464723A2025FA
:104908005820255820255820255820255820255836
:104918000A0D0000646F5F67657466726F6D64618D
:104928006464726573733A2061646472206E6F7494
:10493800204F4B3A20253038580A0D00474554413E
:104948004444523A207265616420616464723A207A
:1049580025582025582025582025582025580A0D47
:104968000000000073656E64343A202558202558ED
:104978002025582025582025582025580A0D0000A4
:1049880047455420464C4153485020616464722086
:104998000000000020255800424F47555320434D42
:1049A8004420434F44453A20255820253038582084
:1049B800255820202530385820253038580A0D0031
:1049C80010000020000000000000000000000000AF
:1049D80000000000000000000000000000000000CF
:1049E80000000000000000000000000000000000BF
:1049F80000000000000000000000000000000000AF
:104A0800000000000000000000000000000000009E
:104A1800000000000000000000000000000000008E
:104A280000000000232D302B2000686C4C006566C8
:104A380067454647003031323334353637383941E7
:104A480042434445460030313233343536373839FD
:084A5800616263646566000001
:084A600060B8FF7F01000000B7
:084A6800B50100080000000088
:084A70009101000800000000A4
:104A7800100000000100000000093D0000080000CF
:104A880000000000CC490008EC4900080C4A000866
:104A9800000000000000000000000000000000000E
:104AA80000000000000000000000000000000000FE
:104AB80000000000000000000000000000000000EE
:104AC80000000000000000000000000000000000DE
:104AD80000000000000000000000000000000000CE
:084AE800100000200000000096
:040000050800355565
:00000001FF
